:0600000000308A004928CF
:10000800FA0003088301EC000408ED000A08EE007A
:100018008A017B08F4007C08F3007D08F5007E085F
:10002800F7007F08F6007108EF007208F0000B1D5A
:1000380022280A128A11EE240A128A118312031343
:100048008C1D2B280A128A1595270A128A110C1C56
:1000580032280A128A1502250A128A117408FB002E
:100068007308FC007508FD007708FE007608FF009D
:100078006F08F1007008F2006D0884006E088A00AD
:100088006C088300FA0E7A0E0900203084006C3068
:100098005720A0308400DA3057200A128A119C2B8E
:1000A80004068001840A0406031D542864000034F1
:1000B80083120313F100F21B6A28721B722872085C
:1000C8008A007108F10A0319F20A82008313721870
:1000D80083177108F10A8400000808004434653465
:1000E800763465346C346F3470346D3465346E3402
:1000F800743420344B346934743400344E346F34DF
:100108007434203461342034763461346C34693486
:100118006434003420342034533457342034563473
:10012800653472342E34203431342E343034003473
:100138004D346934633472346F34633468346934E9
:100148007034203454346534633468342E340034C5
:100158004B344C3451342034233400345434723406
:1001680061346E3473346D34693474347434653482
:10017800723420344E346F347434203400345434A0
:10018800723461346E3473346D3469347434743455
:100198006534723420340034543465347334743420
:1001A800203442347534663466346534723420340D
:1001B80000344E346F34743420346134203456346F
:1001C80061346C3469346434203400345234653416
:1001D800733475346C3474343A342034003448340D
:1001E8004F3450343A342034003453344E342034AD
:1001F8003A342034003420342034203420344B3432
:10020800653465344C346F347134203433342034DD
:1002180000344134453453342334203400345834C2
:1002280054344534413423342034003420342034C9
:100238005434723461346E3473346D3469347434C4
:10024800743465347234213420340034203420343A
:10025800203420344C346534613472346E3465345F
:100268006434213420340034BE308301E00080300F
:10027800E1000D30E200E30131300A128A15C02591
:100288000A128A112013062A0A128A112F270A1223
:100298008A15A7260A128A11DB2500300A128A114C
:1002A8000726AC30D8000030D9000A128A11E3259D
:1002B8000430D50055032D3E8400831300080A122C
:1002C8008A1154260A128A11D503031D5E29C930E2
:1002D800D600D60B6D2940300A128A110726EA305B
:1002E800D8000030D9000A128A11E3250430D5005D
:1002F8005503313E8400831300080A128A115426DC
:100308000A128A11D503031D7C29C930D600D60BE1
:100318008B29162A0A128A11DB2500300A128A1143
:1003280007260D30D8000130D9000A128A11E325BA
:10033800D5015503313E8400831300080A128A113F
:1003480054260A128A11D50A06305502031C9D2923
:10035800C930D600D60BAE2940300A128A110726BA
:100368000630D5005503313E8400831300080A1275
:100378008A1154260A128A11D50A0F305502031C15
:10038800B629C930D600D60BC729162A0A128A11EF
:10039800DB2500300A128A1107261330D8000130F5
:1003A800D9000A128A11E325D5015503313E84008C
:1003B800831300080A128A1154260A128A11D50AD0
:1003C80006305502031CD929C930D600D60BEA29B4
:1003D80040300A128A1107260630D5005503313EEF
:1003E8008400831300080A128A1154260A128A11FB
:1003F800D50A0A305502031CF229C930D600D60B9B
:10040800032A162A2808013A03194829033A031926
:100418008E29013A0319CA290A128A112F270A12AA
:100428008A15A7260A128A15FB240A128A1100388F
:10043800031D4F2A07308316B40004308312D500F9
:100448005508053CB43E840083138001D50B242A4B
:100458000430D5005508093CB43E8400831380015C
:10046800D50B2E2A0A128A11DB2500300A128A11AE
:100478000726DD30D8000030D9000A128A11E3259A
:1004880040300A128A110726C330D8000030D9003C
:100498000A128A11E32DA01D732A0A128A11BD2699
:1004A8000A128A110038031D612A0A128A15E625E4
:1004B8000A128A110038031908000A128A15E1265F
:1004C80020150A128A1571260A128A110A30831613
:1004D800A0000530A20083120616A01108000A1217
:1004E8008A11BD260A128A110038031DAC2A05306C
:1004F8008316B40004308312D5005508053CB43E79
:10050800840083138001D50B812A0430D500550857
:10051800093CB43E840083138001D50B8B2A0A1250
:100528008A11DB2500300A128A110726B230D8005A
:100538000030D9000A128A11E32540300A128A11C4
:1005480007262A30D8000130D9000A128A11E32D73
:100558000A128A11C0270A128A110038031DE72AD5
:1005680007308316B40004308312D5005508053CC3
:10057800B43E840083138001D50BBA2A0430D50019
:100588005508093CB43E840083138001D50BC42A66
:100598000A128A11DB2500300A128A1107268230D6
:1005A800D8000030D9000A128A11E32540300A1217
:1005B8008A1107260A128A111A30D8000130D90088
:1005C8000A128A11E32D201EED2AA3080319080038
:1005D800F82A0A128A1571260A128A11071538088C
:1005E8002506F039031906160430A30010308316C7
:1005F800B40004308312D50055032D3E84008313C4
:100608000008D7005508053CB43E840083135708FA
:100618008000D50B002B0430D5005503313E8400F3
:1006280083130008D7005508093CB43E840083139F
:1006380057088000D50B112B08000A128A11DB25F8
:1006480000300A128A1107268E30D8000030D900EF
:100658000A128A11E3250A128A11C930D500D50B6E
:10066800332B40300A128A1107269C30D8000030FC
:10067800D9000A128A11E32D0A128A11DB250030EB
:100688000A128A110726FF30D8000030D9000A1252
:100698008A11E3250A128A11C930D500D50B522BCD
:1006A80040300A128A1107260A128A117230D800BD
:1006B8000030D9000A128A11E32D8301D701D8012D
:1006C8006D2B00000000000000000000D70A03198D
:1006D800D80A56085802031D732B550857020318E9
:1006E8000800652B7030831603138F0003178801E9
:1006F8008901031387128717071385010516061446
:10070800861286140615861507108710071106121B
:100718000E30950481131030831285000E30860048
:10072800870160308B000F30831681008312080028
:100738007623D20187141030D5002730D6006123E4
:1007480087101030D5002730D6006123D20A053033
:100758005202031C9E2B0A128A152F270A128A118D
:100768001030D5002730D6006123402320108E0199
:100778008F010C101130900083160C140A128A1580
:1007880023250A128A1542250A128A11D301530811
:10079800B43E840083138001D30A09305302031C3A
:1007A800CB2B60308B008B1783128619E62B013018
:1007B800A006201CE32B21230A128A11E62B4023D2
:1007C8000A128A11201FEE2B061638210A128A11E6
:1007D800061220138316D70803198E2CD7017A2CFA
:1007E8000A128A11DB2500300A128A110726D03036
:1007F800D8000030D9000A128A11E3250A128A119A
:10080800C930D400D40B062C40300A128A110726AE
:10081800D201D20A5208AE3E8400831300080A129D
:100828008A1154260A128A11D20A05305202031874
:100838008E2C0E2C2F1C232C83128714252C83120C
:1008480087108316AF1C2B2C831207142D2C8312B0
:10085800071083162F1D332C83120715352C83128E
:1008680007118316AF1D3B2C831206163D2C8312ED
:10087800061283162F0F8E2C83128710071007116C
:1008880006128E2C2F1C602C8312A015FF308316A5
:10089800A300831206168316B401B40A8312D30187
:1008A800D30A5308B43E840083138001D30A093065
:1008B800530203188E2C552CAF1C8E2C0A128A1545
:1008C8007C250A128A118710023083138316B4001C
:1008D8008312D301D30A5308B43E840083138001E2
:1008E800D30A0930530203188E2C6F2C2E08013AB4
:1008F8000319F42B033A03191E2C013A03198E2C01
:10090800073A0319462C013A03198E2C033A0319A6
:100918008E2C013A8312A4080319D82BA401861837
:10092800C72C8316A10A2108803A031DBA2C83120A
:100938000612861C9D2C06160A128A157C250A1298
:100948008A11023083138316B4008312D201D20AAB
:100958008316B4018312D20A0A305202031CAC2C4B
:100968000430A3008316A1018312A0118316210865
:10097800043A8312031DCA2CA015FF308316A30066
:1009880083120616C92C8316A1018312A308031922
:10099800D42CA30BD42C06128710071007110612AB
:1009A8008316A3080319DD2CA30BDD2C8312061272
:1009B800A0118316A0080319D82BA20BD82B053039
:1009C800A200A003831206128316201CD82B8312C0
:1009D8000616D82B8301051EF32CA016F42CA012A2
:1009E800AC3081000B11AB0A0319AC0A201B0800BC
:1009F800B12DA01A022D0330A7000800A60326086F
:100A0800803A873E03180800413021020318122D4E
:100A1800A801A701A70AA201A101080041302102EB
:100A28006430031C1D2D210203181C2DA801A80ADF
:100A380064302102A030031C272D21020318262D23
:100A48000330A800A0302102031C2C2D0230A8007E
:100A5800A70120170800A01E4F2D0230A70022086A
:100A6800BE3E840083130310800CA61B402D220871
:100A7800BE3E840080308007A601A10A21080739FC
:100A88000319A20A2108AA3A031D0800A701201782
:100A98000230A8000800A60A2608803A793E031CFE
:100AA80008002208BE3E840083130310800CA61B96
:100AB800622D2208BE3E840080308007413021022A
:100AC80003186C2DA801A701A70AA201A10108001B
:100AD800413021026430031C772D21020318762D42
:100AE800A801A80A64302102A030031C812D21022C
:100AF8000318802D0330A800A0302102031C862D86
:100B08000230A800A70120170800A01E9C2D260867
:100B1800803A673E031C952D2608803A533E031CF5
:100B2800982DA701A6010800A6010230A700080019
:100B3800A60A0800A01BA42DA01E0800A0170800E4
:100B4800A01A0800A701A70AA01308000430A700EC
:100B5800A601A201A101A01308002708003A031961
:100B6800AA2D013A0319892D033A0319FD2C013ADC
:100B780003192F2D073A03199E2DAA2D8301DE0094
:100B88005E0E0F39E0000508F0396004850085160F
:100B980085125E080F39E0000508F0396004850009
:100BA800851685122930DF00DF0BD82D0800830158
:100BB80005130130C22528300A128A15162D830123
:100BC8000517F22D5908F2005808D80A0319D90A4E
:100BD8000A128A115C200A128A11C2255908F200E9
:100BE80058080A128A115C200A128A11003803195F
:100BF8000800E62D8301DC000517C2252930DD0039
:100C0800DD0B042E08008301D8000513803EC22D99
:100C1800830105138030C2252930D200D20B122E51
:100C280008000C260517242E5308F2005208D20A91
:100C38000319D30A0A128A115C200A128A11C225E2
:100C48005308F20052080A128A115C200A128A110B
:100C5800003803190800182E83010513C030C22577
:100C68002930D200D20B362E080030260517482E20
:100C78005308F2005208D20A0319D30A0A128A1139
:100C88005C200A128A11C2255308F20052080A127F
:100C98008A115C200A128A110038031908003C2EB8
:100CA8008301D800D901DA01D9015808F039DB00ED
:100CB800DB0E0F30DB055B08DA000A305A02031C32
:100CC800672E3730682E3030DA075A08FE25D80EDE
:100CD800F030D805D90A0230590203180800592EF5
:100CE80083015208542E8301DF00831603178C13E7
:100CF8008312031303178D0083160C1483120C0838
:100D08000313E000080083015B0877268316A4001C
:100D1800A50183125B0A7726DE00DD015D088316D4
:100D2800A4070318A50A83125E088316A507831271
:100D38000800831203178D0A83160C1483120C08FB
:100D480083160313A400A501831203178D0A8316C3
:100D58000C1483120C080313DC00DB015B088316F8
:100D6800A4070318A50A83125C088316A507831233
:100D780008008301D8018316AC01AD01042F2C08AB
:100D88008312DB0083162D088312DC0087260A12E3
:100D98008A11831625088312A500F039F03A031941
:100DA800FF2E83162508FC002408FB00FC01831293
:100DB8003508D900DA017C085A06031DE52E7B08A0
:100DC8005906031DFF2E9D2683162508FC002408BE
:100DD800FB00FC01831236067C04031DFF2E8316DC
:100DE80025088312D900DA0137065A04031DFF2E9D
:100DF800D801D80A0B2F08308316AC070318AD0AA0
:100E080000302D02403003192C02031CC32E83121C
:100E1800580B1A2F9D2683162408A6002508A7001C
:100E28009D2683162408A8002508A90083125808BF
:100E38000800EF308301C800CD30C900AB30CA00CC
:100E48008930CB006730CC004530CD002330CE0050
:100E5800CF01CF0A0800830135082D06031D442F52
:100E68002E083606031D442F2F083706031D442F6E
:100E780038080F393006031D442FA308031D080046
:100E88003130E0008030E1000430E200E301583006
:100E98000A128A15C0253530E0008030E1000430A0
:100EA800E200E3012D300A128A15C0250F30B00583
:100EB8002D30E0008030E1000430E200E301313001
:100EC8000A128A15C0250A128A11B4161D270A1299
:100ED8008A15A7263130E0008030E1000430E200B6
:100EE800E3015C300A128A15C0252D30E0008030FD
:100EF800E1000430E200E30131300A128A15C0250E
:100F08000A128A116030B4041D270A128A15A7260E
:100F18003130E0008030E1000430E200E3014C3081
:100F28000A128A15C0255C30E0008030E1000430E8
:100F3800E200E30148300A128A15C0250A128A1114
:100F48005830E0008030E1000430E200E301313045
:100F58000A128A15C02D8301A01483162B08FC00E1
:100F68002A08FB000130FB070318FC0A7B088312E0
:100F7800A9007C08AA00003483012011201232083D
:100F88008316AB00831231088316AA008312A01CB3
:100F9800DC2F83162B0883122A06031DD72F8316EE
:100FA8002A0883122906031DDC2FA01020150134FE
:100FB800831629082706031DE32F28082606031988
:100FC800E62FAF2F26082A02A8002708031C270AA5
:100FD8002B02A90000302902113003192802031C32
:100FE800F62FAF2F2908280483120319201620157D
:020FF8000134C2
:1019F600830134083806F039031D003401348301AD
:101A060010108E018F010C101014A401A40A0800F6
:101A1600FF00FF0AFF03031900340310FE0CFD0C40
:101A2600FC0CFB0C0D2D8301D8000430D900FB30D3
:101A3600DA00DA0B1C2DD90B1A2DD80B182D08003D
:101A460083018101831681120B118B168B1783126A
:101A5600A7012013AB01AC01A801080083015308BC
:101A6600D2005408D3000A128A1174260A128A1563
:101A76005208D2005308D3000A128A11742E831614
:101A860003130716871530309300940139308312FB
:101A96009400363094008316D901D801D701D70AAD
:101AA600D501D60183128C1183168C15831208007A
:101AB6000A128A11DB2500300A128A110726F9302C
:101AC600D8000030D9000A128A11E3250A128A15B5
:101AD600C930D200D20B6D2D40300A128A1107266A
:101AE6000A128A15F330D8000030D9000A128A117A
:101AF600E32D83160313AC01AD01952DFF30A40031
:101B0600A5002C088312DA0083162D088312DB0049
:101B16000A128A152B260A128A1508308316AC0774
:101B26000318AD0A00302D02403003192C02031CA5
:101B3600812D831201348301D2010F30831685046F
:101B460083120513851705080F39D20085168512ED
:101B560005080F39D300D30EF030D3055308D2044D
:101B660085130517F0308316850583125208080081
:101B76009E25D200D21B013400348301E4006008A4
:101B8600E6006108E7006408E500DB2D6708F2005F
:101B960066080A128A115C200A128A15E80065088E
:101BA6008400831368088000E50AE60A0319E70A39
:101BB60062080319E303E203620A0319630A031DB9
:101BC600C92D6408080083160313AC01AD01062E67
:101BD6002C088312DB0083162D088312DC000A1200
:101BE6008A1187260A128A15831625088312A500EC
:101BF600F039F03A031D012E01300E2E08308316FF
:101C0600AC070318AD0A00302D02403003192C0230
:101C1600031CEB2D0030831208008301DD008316C0
:101C260003178C13831203135C0803178C0003132A
:101C36005D0803178D008B138B1383160C15553017
:101C46008D00AA308D008C148C18272E8301013448
:101C56008316031324088312DC005A0810268B17F8
:101C6600831625088312DC005A0A10268B170800F3
:101C76008301D201D301D2015208FB005308FC00B4
:101C86005408FD005508FE00FB01FC01FD01F03083
:101C9600FE051C300A128A150B250A128A157B08C6
:101CA600D3000A305302031C5A2E37305B2E3030D5
:101CB600D30753080A128A11FE250A128A15043020
:101CC600FB000310D20DD30DD40DD50DFB0B642EE6
:101CD600D20A08305202031808003F2E8301201D45
:101CE600003432088316AB00831231088316AA002B
:101CF600A4002B08A5002D08FC002C08FB000430CE
:101D0600FB070318FC0A7B088312DA007C08DB0059
:101D16000A128A152B2683162A08A4002B08A5006A
:101D26002D08FC002C08FB000630FB070318FC0AF4
:101D36007B088312DA007C08DB000A128A152B2640
:101D46000A128A15201101348301E301E30A4230A5
:101D5600E1006308483E840083130008E200E303C1
:101D66000830E31BE307E000341FBF2EB418BD2E76
:101D76003A30C42E5C30C42EB418C32E7430C42E30
:101D86002E30C700B319C70E321CCD2E0310C70D57
:101D96000310C70D311CD12E0310C70D32083406AF
:101DA6006206C706470DB10DB20DB30DB40D031093
:101DB600E20DE00BB72EE10BAC2E08008301A01D4F
:101DC600003438088316A400A501FC00FB01831229
:101DD6003508D800D9017B08D8070318D90A7C082A
:101DE600D90758088316A400831259088316A5003C
:101DF6002C088312DA0083162D088312DB000A12E0
:101E06008A152B2637088316A400A501FC00FB01C2
:101E160083123608D800D9017B08D8070318D90AD7
:101E26007C08D90758088316A4008312590883161C
:101E3600A5002D08FC002C08FB000230FB07031848
:101E4600FC0A7B088312DA007C08DB000A128A157A
:101E56002B260A128A1501348301D5011030831608
:101E6600850583128501851332300A128A151625D7
:101E7600051332300A128A1516250A128A11DB2535
:101E86000A128A1502308500851685123330D6006F
:101E9600D60B4B2F08308500851685123330D600B9
:101EA600D60B532F850185168512083085008516B9
:101EB60085123330D600D60B5E2F85018516851226
:101EC6000C308500851685123330D600D60B692F67
:101ED600850185168512013085008516851202302A
:101EE6000A128A1516250A128A1585018516851283
:101EF600063085003330D600D60B7F2FD50A023048
:101F0600550203180800312F8301EB0083160313D3
:101F16001418892F831294136B089300941B8D2F2A
:101F26001416080083018C11141F9D2F8316D50AE1
:101F360083121413941FDE2F8316D50A831294136B
:101F4600DE2FD801AE308312D0001308EA00FE2F30
:101F560083121308EA000530831658028312031809
:101F660008005008840083136A088000D00A0530F0
:101F76008316D80A5802031CFE2FD701D70AFE2F54
:101F860083121308EA0094138316D9015908B43E44
:101F960084008313000887278316D901DC2F831258
:101FA600941383165908B43E8400831300088727C8
:101FB6008316D90AFE2F831614082D39FD00FE015B
:101FC600F52F7D08093A0319A42F043A0319C32FE4
:101FD600253A0319FD2F013A0319AB2F053A0319C8
:101FE600D22FF92F7E08003A0319E42F83126908CD
:0A1FF6008316D600000083120800D5
:02400E00342755
:00000001FF
