:020000040000FA
:1000000007309900850105148E018F013130900071
:1000100083163C30850061308F00463081003C30D3
:10002000950000309700FF3096008312CA2AE90A33
:1000300085101E28E90A85141E28E90A5B20452040
:1000400000000000DC005D1ADC070E306907DC02EE
:10005000031C0034E90100000000DC0B2B2805081C
:100060006005EB000319E70B3628F11459096B05FD
:10007000F11805086005EB00031900345906600506
:100080000319D917031D16280134650863020230CD
:10009000D81F0130051C0A30031C58286307E500EF
:1000A00005087118FE39013A8500DD1E14345034FC
:1000B00059285A2855281830631819300F02031888
:1000C0008F000318E30AE31F6928E40AE313E5132A
:1000D00036343634DB0045205B20DC00DC0B6E2838
:1000E000DB0B6B2800340130DB1400008028DB00C0
:1000F000773084000E305B07831C840A0008831C61
:10010000E8006103E118033AE100681CE109581CAA
:100110009D288A280508FD396818023885001D20A9
:100120000508023A8500D81C99281D20851000007A
:1001300099289A2869151F20B828D81CAB280000D8
:100140000508023A850069151F20050C680601396B
:10015000031D1E20B828AC2885141D200000681837
:100160008510B2281D2085100330E9001F200000F3
:100170000000E80CDB03DB0B7A2800340730E921B0
:1001800083161A0A831208308A0002305E1A03307E
:10019000DE19031D01398207113414341534173464
:1001A000E101D81A61147113051C71170514E50AD1
:1001B0000515DE1C5E18DD2871160B30711E01302E
:1001C000DB00711ADE100030DE1C0C305E1C1830B3
:1001D000711E8F07E90169155B20452085142020D9
:1001E000BE2083169400F000941EF428831271142C
:1001F000F006F00DF0000C1F711083120318DE1DC5
:100200000A298510831607309B00FF30711C0030CF
:10021000F5218312E503711B05108510EA001029F2
:10022000DE1C5E1069151E20581B05105813DE18C1
:100230001E205E181E205E181E205E181E20E91467
:1002400085141E20033058190930E31C711ADB0B8A
:100250000D29E91485101F20E9141E207116681459
:100260008030D81A8230EA0B2C297720710874204C
:100270005B15610875205B156208581A7520DB0153
:10028000D81A73200034F1105908DC000310DC0C7C
:10029000DC0C5C0EF039DC00DC1BDC15DC0D5C10CA
:1002A000DE1E0515DE1A85145E0855220422DB21A8
:1002B000D8195E290F307F055C04FF00F11E6C2900
:1002C0007111F030DD057F3084001430F1192A30CF
:1002D000E021E221F030FF04F1120130DF18043098
:1002E000DA005F18DA078E018F01E301E501E4010E
:1002F0003030DD1A0C30E7005D1EE707711D9829CC
:10030000DD1B882920305D1B8B291E201E2098298B
:1003100000306A205D1B6A200830DD192030E600BD
:100320005D19E60766080310E61D630203186029DD
:100330007115D020630DF039E600E60E640EE60478
:1003400002305F1A0830E6021E305F1A3830E602CB
:100350008510E61FD1290000D91B581EB52971113F
:10036000D913E20A6219E2034329DA0B7E29DA0A79
:10037000DD186029D91BAF29F11C7E295908031DFE
:10038000581ED1297112013085000511C030DA00E4
:10039000DC01CA29DC0BC9292F20D91BAC29DA0BB7
:1003A000C8290514051105080B108B156300000002
:1003B0000B108B1100287F3084001030F11926308B
:1003C00083169B00EB21800084030418841CE2291F
:1003D000003483169B0083161C149B0A1A08831290
:1003E00008008316841600089B0383169A001C15C8
:1003F00055309D00AA309D009C1464009C18FD2976
:100400001C119B0A831200348312031703309000DF
:10041000831603131E30F11934309B0083171430F8
:1004200084001C141A0880009B0A84030408113CF1
:10043000031C112A0319112A83120317101C242AE2
:100440009003831603130F2A8313831203170130BB
:100450009000423091000030900078308400000815
:100460009100840A00089200840A00089300840A1C
:100470000008940010179017901B3C2A0030900041
:100480007830840011088000840A12088000840AF1
:1004900013088000840A14088000831203130034B8
:1004A0007D18FC097C18FB090034DB007D308400DA
:1004B0000030F1190830E021E2217A087806790647
:1004C000031D8A2A7C087B067A06031D932A790875
:1004D0007C06FD06FD00031D982A50227B0D7D0D34
:1004E0003F397C0403197C2A84125D18F112F03024
:1004F0005D18DD05DD108416F11A0034FB0A0319BE
:10050000FC0A0319FD0AFD1A7D16FD127C18FB0971
:100510007D18FC097D087C06F9007D087B06F80043
:100520007C087B06FA007D087906FC007A06FB0051
:100530007D3084000030F1190830E9210006031DE8
:10054000F121EB21840384199E2A50227B08F800B4
:100550007C08F9007D08FA001E390C30031D0030BC
:100560007A18FB39FB000F30FA051C30F1193230D4
:10057000E9210339FB04EB215E1DC32AFB00FB0EBE
:100580007B08F0397A04FA000F30FB055C08FB04A5
:10059000F11200343D30E9213F39DF003F30E921DD
:1005A0003F39DE00DF1DD62A8316051183160508A4
:1005B00083125F193B39E0003F308E008F00EB2142
:1005C0000F1FDF2AF1010519F115DF1D5F1DF11164
:1005D00005086005D9001C30F1193230E921831675
:1005E0009A0C1A0C83123F39D8003F30F1193D3074
:1005F000E921C039D8043C30F1193E30E921DD0051
:100600001430F1192A30E921590860050319D1295C
:1006100083161A0E83120F395906F030031DDD05BB
:100620000319F1165D1DDD19F112DD18F112F11734
:060630007114E2014329F0
:02400E00142F6D
:10420000AA000000AA000000AA00000000000000B0
:10421000000000000000000000000000000000009E
:10422000010023004500670038009900AA00BB0088
:10423000CC00DD00EE00FF001000EE0005001600CF
:10424000FB00E9008900070042007800010023001C
:10425000450077004F001100220033004400550054
:10426000660077001000DD007C0043003B00FF008B
:10427000130010008C003600D0003500D000800004
:00000001FF
